{
  "contractName": "CrowdFunding",
  "abi": [
    {
      "constant": true,
      "inputs": [],
      "name": "numFundings",
      "outputs": [
        {
          "name": "",
          "type": "uint256"
        }
      ],
      "payable": false,
      "stateMutability": "view",
      "type": "function"
    },
    {
      "constant": true,
      "inputs": [
        {
          "name": "",
          "type": "uint256"
        }
      ],
      "name": "fundings",
      "outputs": [
        {
          "name": "initiator",
          "type": "address"
        },
        {
          "name": "title",
          "type": "string"
        },
        {
          "name": "info",
          "type": "string"
        },
        {
          "name": "coverImage",
          "type": "string"
        },
        {
          "name": "goal",
          "type": "uint256"
        },
        {
          "name": "endTime",
          "type": "uint256"
        },
        {
          "name": "success",
          "type": "bool"
        },
        {
          "name": "amount",
          "type": "uint256"
        },
        {
          "name": "numFunders",
          "type": "uint256"
        },
        {
          "name": "numUses",
          "type": "uint256"
        },
        {
          "name": "numProves",
          "type": "uint256"
        }
      ],
      "payable": false,
      "stateMutability": "view",
      "type": "function"
    },
    {
      "constant": false,
      "inputs": [
        {
          "name": "initiator",
          "type": "address"
        },
        {
          "name": "title",
          "type": "string"
        },
        {
          "name": "info",
          "type": "string"
        },
        {
          "name": "coverImage",
          "type": "string"
        },
        {
          "name": "details",
          "type": "string[]"
        },
        {
          "name": "goal",
          "type": "uint256"
        },
        {
          "name": "endTime",
          "type": "uint256"
        }
      ],
      "name": "newFunding",
      "outputs": [
        {
          "name": "",
          "type": "uint256"
        }
      ],
      "payable": false,
      "stateMutability": "nonpayable",
      "type": "function"
    },
    {
      "constant": false,
      "inputs": [
        {
          "name": "ID",
          "type": "uint256"
        }
      ],
      "name": "contribute",
      "outputs": [],
      "payable": true,
      "stateMutability": "payable",
      "type": "function"
    },
    {
      "constant": false,
      "inputs": [
        {
          "name": "ID",
          "type": "uint256"
        }
      ],
      "name": "returnMoney",
      "outputs": [],
      "payable": false,
      "stateMutability": "nonpayable",
      "type": "function"
    },
    {
      "constant": false,
      "inputs": [
        {
          "name": "ID",
          "type": "uint256"
        },
        {
          "name": "goal",
          "type": "uint256"
        },
        {
          "name": "info",
          "type": "string"
        }
      ],
      "name": "newUse",
      "outputs": [],
      "payable": false,
      "stateMutability": "nonpayable",
      "type": "function"
    },
    {
      "constant": false,
      "inputs": [
        {
          "name": "ID",
          "type": "uint256"
        },
        {
          "name": "info",
          "type": "string"
        },
        {
          "name": "relation",
          "type": "string"
        },
        {
          "name": "picture",
          "type": "string"
        }
      ],
      "name": "newProve",
      "outputs": [],
      "payable": false,
      "stateMutability": "nonpayable",
      "type": "function"
    },
    {
      "constant": false,
      "inputs": [
        {
          "name": "ID",
          "type": "uint256"
        },
        {
          "name": "useID",
          "type": "uint256"
        },
        {
          "name": "agree",
          "type": "bool"
        }
      ],
      "name": "agreeUse",
      "outputs": [],
      "payable": false,
      "stateMutability": "nonpayable",
      "type": "function"
    },
    {
      "constant": false,
      "inputs": [
        {
          "name": "ID",
          "type": "uint256"
        },
        {
          "name": "useID",
          "type": "uint256"
        }
      ],
      "name": "checkUse",
      "outputs": [],
      "payable": false,
      "stateMutability": "nonpayable",
      "type": "function"
    },
    {
      "constant": true,
      "inputs": [
        {
          "name": "ID",
          "type": "uint256"
        }
      ],
      "name": "getUseLength",
      "outputs": [
        {
          "name": "",
          "type": "uint256"
        }
      ],
      "payable": false,
      "stateMutability": "view",
      "type": "function"
    },
    {
      "constant": true,
      "inputs": [
        {
          "name": "ID",
          "type": "uint256"
        }
      ],
      "name": "getProveLength",
      "outputs": [
        {
          "name": "",
          "type": "uint256"
        }
      ],
      "payable": false,
      "stateMutability": "view",
      "type": "function"
    },
    {
      "constant": true,
      "inputs": [
        {
          "name": "ID",
          "type": "uint256"
        }
      ],
      "name": "getDetails",
      "outputs": [
        {
          "name": "",
          "type": "string[]"
        }
      ],
      "payable": false,
      "stateMutability": "view",
      "type": "function"
    },
    {
      "constant": true,
      "inputs": [
        {
          "name": "ID",
          "type": "uint256"
        },
        {
          "name": "useID",
          "type": "uint256"
        },
        {
          "name": "addr",
          "type": "address"
        }
      ],
      "name": "getUse",
      "outputs": [
        {
          "name": "",
          "type": "string"
        },
        {
          "name": "",
          "type": "uint256"
        },
        {
          "name": "",
          "type": "uint256"
        },
        {
          "name": "",
          "type": "uint256"
        },
        {
          "name": "",
          "type": "bool"
        },
        {
          "name": "",
          "type": "uint256"
        }
      ],
      "payable": false,
      "stateMutability": "view",
      "type": "function"
    },
    {
      "constant": true,
      "inputs": [
        {
          "name": "ID",
          "type": "uint256"
        },
        {
          "name": "useID",
          "type": "uint256"
        }
      ],
      "name": "getProve",
      "outputs": [
        {
          "name": "",
          "type": "string"
        },
        {
          "name": "",
          "type": "string"
        },
        {
          "name": "",
          "type": "string"
        }
      ],
      "payable": false,
      "stateMutability": "view",
      "type": "function"
    },
    {
      "constant": true,
      "inputs": [],
      "name": "getBalance",
      "outputs": [
        {
          "name": "",
          "type": "uint256"
        }
      ],
      "payable": false,
      "stateMutability": "view",
      "type": "function"
    },
    {
      "constant": true,
      "inputs": [
        {
          "name": "addr",
          "type": "address"
        },
        {
          "name": "ID",
          "type": "uint256"
        }
      ],
      "name": "getMyFundings",
      "outputs": [
        {
          "name": "",
          "type": "uint256"
        }
      ],
      "payable": false,
      "stateMutability": "view",
      "type": "function"
    }
  ],
  "bytecode": "0x608060405234801561001057600080fd5b5061279b806100206000396000f3fe6080604052600436106100e0576000357c010000000000000000000000000000000000000000000000000000000090048063119eb08b146100e557806312065fe01461010e578063164b2fb31461013957806331edebe7146101625780633785fc1a146101a15780633c698349146101ca578063521a14151461020757806357531ea214610244578063716f71471461026d5780638a23e047146102aa5780639700a04f146102d3578063b93a89f714610310578063c1cbbca71461034d578063c70a2d7914610369578063d13cb1fb14610394578063ee40f60d146103db575b600080fd5b3480156100f157600080fd5b5061010c60048036036101079190810190612100565b61041d565b005b34801561011a57600080fd5b5061012361056d565b6040516101309190612589565b60405180910390f35b34801561014557600080fd5b50610160600480360361015b9190810190612285565b61058c565b005b34801561016e57600080fd5b50610189600480360361018491908101906121ab565b61077c565b604051610198939291906124d5565b60405180910390f35b3480156101ad57600080fd5b506101c860048036036101c391908101906120d7565b6109b8565b005b3480156101d657600080fd5b506101f160048036036101ec91908101906120d7565b610b95565b6040516101fe9190612589565b60405180910390f35b34801561021357600080fd5b5061022e600480360361022991908101906120d7565b610bd2565b60405161023b9190612589565b60405180910390f35b34801561025057600080fd5b5061026b60048036036102669190810190612236565b610c0f565b005b34801561027957600080fd5b50610294600480360361028f919081019061209b565b61100e565b6040516102a19190612589565b60405180910390f35b3480156102b657600080fd5b506102d160048036036102cc91908101906121ab565b611101565b005b3480156102df57600080fd5b506102fa60048036036102f59190810190611f9d565b6113a0565b6040516103079190612589565b60405180910390f35b34801561031c57600080fd5b50610337600480360361033291908101906120d7565b6114e3565b60405161034491906124b3565b60405180910390f35b610367600480360361036291908101906120d7565b611600565b005b34801561037557600080fd5b5061037e611783565b60405161038b9190612589565b60405180910390f35b3480156103a057600080fd5b506103bb60048036036103b691908101906120d7565b611789565b6040516103d29b9a999897969594939291906123f3565b60405180910390f35b3480156103e757600080fd5b5061040260048036036103fd91908101906121e7565b6119d8565b60405161041496959493929190612521565b60405180910390f35b6000548411158015610430575060018410155b151561043b57600080fd5b6001600085815260200190815260200160002060000160009054906101000a900473ffffffffffffffffffffffffffffffffffffffff1673ffffffffffffffffffffffffffffffffffffffff163373ffffffffffffffffffffffffffffffffffffffff16141515156104ac57600080fd5b6000600160008681526020019081526020016000209050600181600b01540181600b01819055508381600e01600083600b015481526020019081526020016000206000019080519060200190610503929190611c32565b508281600e01600083600b015481526020019081526020016000206001019080519060200190610534929190611c32565b508181600e01600083600b015481526020019081526020016000206002019080519060200190610565929190611c32565b505050505050565b60003073ffffffffffffffffffffffffffffffffffffffff1631905090565b600054831115801561059f575060018310155b15156105aa57600080fd5b600115156001600085815260200190815260200160002060070160009054906101000a900460ff1615151415156105e057600080fd5b6001600084815260200190815260200160002060080154821115151561060557600080fd5b6001600084815260200190815260200160002060000160009054906101000a900473ffffffffffffffffffffffffffffffffffffffff1673ffffffffffffffffffffffffffffffffffffffff163373ffffffffffffffffffffffffffffffffffffffff1614151561067557600080fd5b6000600160008581526020019081526020016000209050600181600a01540181600a01819055508181600d01600083600a0154815260200190815260200160002060000190805190602001906106cc929190611c32565b508281600d01600083600a0154815260200190815260200160002060010181905550600081600d01600083600a0154815260200190815260200160002060020181905550600081600d01600083600a0154815260200190815260200160002060030181905550600081600d01600083600a0154815260200190815260200160002060040160006101000a81548160ff02191690831515021790555082816008015403816008018190555050505050565b60608060606000548511158015610794575060018510155b151561079f57600080fd5b600060016000878152602001908152602001600020600e0160008681526020019081526020016000209050806000018160010182600201828054600181600116156101000203166002900480601f01602080910402602001604051908101604052809291908181526020018280546001816001161561010002031660029004801561086b5780601f106108405761010080835404028352916020019161086b565b820191906000526020600020905b81548152906001019060200180831161084e57829003601f168201915b50505050509250818054600181600116156101000203166002900480601f0160208091040260200160405190810160405280929190818152602001828054600181600116156101000203166002900480156109075780601f106108dc57610100808354040283529160200191610907565b820191906000526020600020905b8154815290600101906020018083116108ea57829003601f168201915b50505050509150808054600181600116156101000203166002900480601f0160208091040260200160405190810160405280929190818152602001828054600181600116156101000203166002900480156109a35780601f10610978576101008083540402835291602001916109a3565b820191906000526020600020905b81548152906001019060200180831161098657829003601f168201915b50505050509050935093509350509250925092565b60005481111580156109cb575060018110155b15156109d657600080fd5b600015156001600083815260200190815260200160002060070160009054906101000a900460ff161515141515610a0c57600080fd5b60006001600083815260200190815260200160002090506000600190505b816009015481111515610b90573373ffffffffffffffffffffffffffffffffffffffff1682600c01600083815260200190815260200160002060000160009054906101000a900473ffffffffffffffffffffffffffffffffffffffff1673ffffffffffffffffffffffffffffffffffffffff161415610b835781600c01600082815260200190815260200160002060000160009054906101000a900473ffffffffffffffffffffffffffffffffffffffff1673ffffffffffffffffffffffffffffffffffffffff166108fc83600c016000848152602001908152602001600020600101549081150290604051600060405180830381858888f19350505050158015610b39573d6000803e3d6000fd5b50600082600c0160008381526020019081526020016000206001018190555081600c0160008281526020019081526020016000206001015482600801600082825403925050819055505b8080600101915050610a2a565b505050565b600080548211158015610ba9575060018210155b1515610bb457600080fd5b60016000838152602001908152602001600020600a01549050919050565b600080548211158015610be6575060018210155b1515610bf157600080fd5b60016000838152602001908152602001600020600b01549050919050565b6000548311158015610c22575060018310155b1515610c2d57600080fd5b60016000848152602001908152602001600020600a01548211158015610c54575060018210155b1515610c5f57600080fd5b6000151560016000858152602001908152602001600020600d01600084815260200190815260200160002060040160009054906101000a900460ff161515141515610ca957600080fd5b6000600190505b600160008581526020019081526020016000206009015481111515610ffe573373ffffffffffffffffffffffffffffffffffffffff1660016000868152602001908152602001600020600c01600083815260200190815260200160002060000160009054906101000a900473ffffffffffffffffffffffffffffffffffffffff1673ffffffffffffffffffffffffffffffffffffffff161415610ff1576001806000868152602001908152602001600020600d0160008581526020019081526020016000206005016000838152602001908152602001600020541415610df75760016000858152602001908152602001600020600c0160008281526020019081526020016000206001015460016000868152602001908152602001600020600d01600085815260200190815260200160002060020160008282540392505081905550610e9f565b600260016000868152602001908152602001600020600d0160008581526020019081526020016000206005016000838152602001908152602001600020541415610e9e5760016000858152602001908152602001600020600c0160008281526020019081526020016000206001015460016000868152602001908152602001600020600d016000858152602001908152602001600020600301600082825403925050819055505b5b8115610f4c5760016000858152602001908152602001600020600c0160008281526020019081526020016000206001015460016000868152602001908152602001600020600d016000858152602001908152602001600020600201600082825401925050819055506001806000868152602001908152602001600020600d016000858152602001908152602001600020600501600083815260200190815260200160002081905550610ff0565b60016000858152602001908152602001600020600c0160008281526020019081526020016000206001015460016000868152602001908152602001600020600d01600085815260200190815260200160002060030160008282540192505081905550600260016000868152602001908152602001600020600d0160008581526020019081526020016000206005016000838152602001908152602001600020819055505b5b8080600101915050610cb0565b506110098383611101565b505050565b600080600090506000600190505b6001600085815260200190815260200160002060090154811115156110f6578473ffffffffffffffffffffffffffffffffffffffff1660016000868152602001908152602001600020600c01600083815260200190815260200160002060000160009054906101000a900473ffffffffffffffffffffffffffffffffffffffff1673ffffffffffffffffffffffffffffffffffffffff1614156110e95760016000858152602001908152602001600020600c01600082815260200190815260200160002060010154820191505b808060010191505061101c565b508091505092915050565b6000548211158015611114575060018210155b151561111f57600080fd5b6000151560016000848152602001908152602001600020600d01600083815260200190815260200160002060040160009054906101000a900460ff16151514151561116957600080fd5b6002600160008481526020019081526020016000206005015481151561118b57fe5b0460016000848152602001908152602001600020600d016000838152602001908152602001600020600201541015156112a8576001806000848152602001908152602001600020600d01600083815260200190815260200160002060040160006101000a81548160ff0219169083151502179055506001600083815260200190815260200160002060000160009054906101000a900473ffffffffffffffffffffffffffffffffffffffff1673ffffffffffffffffffffffffffffffffffffffff166108fc60016000858152602001908152602001600020600d016000848152602001908152602001600020600101549081150290604051600060405180830381858888f193505050501580156112a6573d6000803e3d6000fd5b505b600260016000848152602001908152602001600020600501548115156112ca57fe5b0460016000848152602001908152602001600020600d01600083815260200190815260200160002060030154111561139c5760016000838152602001908152602001600020600d0160008281526020019081526020016000206001015460016000848152602001908152602001600020600801540160016000848152602001908152602001600020600801819055506001806000848152602001908152602001600020600d01600083815260200190815260200160002060040160006101000a81548160ff0219169083151502179055505b5050565b600042821115156113b057600080fd5b600160005401600081905550600060016000805481526020019081526020016000209050888160000160006101000a81548173ffffffffffffffffffffffffffffffffffffffff021916908373ffffffffffffffffffffffffffffffffffffffff1602179055508781600101908051906020019061142f929190611c32565b5085816003019080519060200190611448929190611c32565b5084816004019080519060200190611461929190611cb2565b508681600201908051906020019061147a929190611c32565b5083816005018190555082816006018190555060008160070160006101000a81548160ff0219169083151502179055506000816008018190555060008160090181905550600081600a0181905550600081600b0181905550600054915050979650505050505050565b606060005482111580156114f8575060018210155b151561150357600080fd5b60016000838152602001908152602001600020600401805480602002602001604051908101604052809291908181526020016000905b828210156115f5578382906000526020600020018054600181600116156101000203166002900480601f0160208091040260200160405190810160405280929190818152602001828054600181600116156101000203166002900480156115e15780601f106115b6576101008083540402835291602001916115e1565b820191906000526020600020905b8154815290600101906020018083116115c457829003601f168201915b505050505081526020019060010190611539565b505050509050919050565b60003411801561163e575060016000828152602001908152602001600020600801546001600083815260200190815260200160002060050154033411155b151561164957600080fd5b42600160008381526020019081526020016000206006015411151561166d57600080fd5b600015156001600083815260200190815260200160002060070160009054906101000a900460ff1615151415156116a357600080fd5b6000600160008381526020019081526020016000209050348160080160008282540192505081905550600181600901540181600901819055503381600c0160008360090154815260200190815260200160002060000160006101000a81548173ffffffffffffffffffffffffffffffffffffffff021916908373ffffffffffffffffffffffffffffffffffffffff1602179055503481600c01600083600901548152602001908152602001600020600101819055508060050154816008015410158160070160006101000a81548160ff0219169083151502179055505050565b60005481565b60016020528060005260406000206000915090508060000160009054906101000a900473ffffffffffffffffffffffffffffffffffffffff1690806001018054600181600116156101000203166002900480601f01602080910402602001604051908101604052809291908181526020018280546001816001161561010002031660029004801561185b5780601f106118305761010080835404028352916020019161185b565b820191906000526020600020905b81548152906001019060200180831161183e57829003601f168201915b505050505090806002018054600181600116156101000203166002900480601f0160208091040260200160405190810160405280929190818152602001828054600181600116156101000203166002900480156118f95780601f106118ce576101008083540402835291602001916118f9565b820191906000526020600020905b8154815290600101906020018083116118dc57829003601f168201915b505050505090806003018054600181600116156101000203166002900480601f0160208091040260200160405190810160405280929190818152602001828054600181600116156101000203166002900480156119975780601f1061196c57610100808354040283529160200191611997565b820191906000526020600020905b81548152906001019060200180831161197a57829003601f168201915b5050505050908060050154908060060154908060070160009054906101000a900460ff169080600801549080600901549080600a01549080600b015490508b565b60606000806000806000805489111580156119f4575060018910155b15156119ff57600080fd5b600160008a8152602001908152602001600020600a01548811158015611a26575060018810155b1515611a3157600080fd5b6000600160008b8152602001908152602001600020600d0160008a8152602001908152602001600020905060008090506000600190505b600160008d81526020019081526020016000206009015481111515611b55578973ffffffffffffffffffffffffffffffffffffffff16600160008e8152602001908152602001600020600c01600083815260200190815260200160002060000160009054906101000a900473ffffffffffffffffffffffffffffffffffffffff1673ffffffffffffffffffffffffffffffffffffffff161415611b4857600160008d8152602001908152602001600020600d0160008c81526020019081526020016000206005016000828152602001908152602001600020549150611b55565b8080600101915050611a68565b50816000018260010154836002015484600301548560040160009054906101000a900460ff1685858054600181600116156101000203166002900480601f016020809104026020016040519081016040528092919081815260200182805460018160011615610100020316600290048015611c115780601f10611be657610100808354040283529160200191611c11565b820191906000526020600020905b815481529060010190602001808311611bf457829003601f168201915b50505050509550975097509750975097509750505093975093979195509350565b828054600181600116156101000203166002900490600052602060002090601f016020900481019282601f10611c7357805160ff1916838001178555611ca1565b82800160010185558215611ca1579182015b82811115611ca0578251825591602001919060010190611c85565b5b509050611cae9190611d12565b5090565b828054828255906000526020600020908101928215611d01579160200282015b82811115611d00578251829080519060200190611cf0929190611d37565b5091602001919060010190611cd2565b5b509050611d0e9190611db7565b5090565b611d3491905b80821115611d30576000816000905550600101611d18565b5090565b90565b828054600181600116156101000203166002900490600052602060002090601f016020900481019282601f10611d7857805160ff1916838001178555611da6565b82800160010185558215611da6579182015b82811115611da5578251825591602001919060010190611d8a565b5b509050611db39190611d12565b5090565b611de091905b80821115611ddc5760008181611dd39190611de3565b50600101611dbd565b5090565b90565b50805460018160011615610100020316600290046000825580601f10611e095750611e28565b601f016020900490600052602060002090810190611e279190611d12565b5b50565b6000611e3782356126d4565b905092915050565b6000611e4b82356126e6565b905092915050565b600082601f8301121515611e6657600080fd5b8135611e79611e74826125d1565b6125a4565b9150818183526020840193506020810190508360005b83811015611ebf5781358601611ea58882611edd565b845260208401935060208301925050600181019050611e8f565b5050505092915050565b6000611ed582356126f8565b905092915050565b600082601f8301121515611ef057600080fd5b8135611f03611efe826125f9565b6125a4565b91508082526020830160208301858383011115611f1f57600080fd5b611f2a83828461270e565b50505092915050565b600082601f8301121515611f4657600080fd5b8135611f59611f5482612625565b6125a4565b91508082526020830160208301858383011115611f7557600080fd5b611f8083828461270e565b50505092915050565b6000611f958235612704565b905092915050565b600080600080600080600060e0888a031215611fb857600080fd5b6000611fc68a828b01611e3f565b975050602088013567ffffffffffffffff811115611fe357600080fd5b611fef8a828b01611f33565b965050604088013567ffffffffffffffff81111561200c57600080fd5b6120188a828b01611f33565b955050606088013567ffffffffffffffff81111561203557600080fd5b6120418a828b01611f33565b945050608088013567ffffffffffffffff81111561205e57600080fd5b61206a8a828b01611e53565b93505060a061207b8a828b01611f89565b92505060c061208c8a828b01611f89565b91505092959891949750929550565b600080604083850312156120ae57600080fd5b60006120bc85828601611e2b565b92505060206120cd85828601611f89565b9150509250929050565b6000602082840312156120e957600080fd5b60006120f784828501611f89565b91505092915050565b6000806000806080858703121561211657600080fd5b600061212487828801611f89565b945050602085013567ffffffffffffffff81111561214157600080fd5b61214d87828801611f33565b935050604085013567ffffffffffffffff81111561216a57600080fd5b61217687828801611f33565b925050606085013567ffffffffffffffff81111561219357600080fd5b61219f87828801611f33565b91505092959194509250565b600080604083850312156121be57600080fd5b60006121cc85828601611f89565b92505060206121dd85828601611f89565b9150509250929050565b6000806000606084860312156121fc57600080fd5b600061220a86828701611f89565b935050602061221b86828701611f89565b925050604061222c86828701611e2b565b9150509250925092565b60008060006060848603121561224b57600080fd5b600061225986828701611f89565b935050602061226a86828701611f89565b925050604061227b86828701611ec9565b9150509250925092565b60008060006060848603121561229a57600080fd5b60006122a886828701611f89565b93505060206122b986828701611f89565b925050604084013567ffffffffffffffff8111156122d657600080fd5b6122e286828701611f33565b9150509250925092565b6122f58161268c565b82525050565b60006123068261265e565b8084526020840193508360208202850161231f85612651565b60005b8481101561235857838303885261233a8383516123ae565b92506123458261267f565b9150602088019750600181019050612322565b508196508694505050505092915050565b6123728161269e565b82525050565b600061238382612674565b80845261239781602086016020860161271d565b6123a081612750565b602085010191505092915050565b60006123b982612669565b8084526123cd81602086016020860161271d565b6123d681612750565b602085010191505092915050565b6123ed816126ca565b82525050565b600061016082019050612409600083018e6122ec565b818103602083015261241b818d6123ae565b9050818103604083015261242f818c6123ae565b90508181036060830152612443818b6123ae565b9050612452608083018a6123e4565b61245f60a08301896123e4565b61246c60c0830188612369565b61247960e08301876123e4565b6124876101008301866123e4565b6124956101208301856123e4565b6124a36101408301846123e4565b9c9b505050505050505050505050565b600060208201905081810360008301526124cd81846122fb565b905092915050565b600060608201905081810360008301526124ef8186612378565b905081810360208301526125038185612378565b905081810360408301526125178184612378565b9050949350505050565b600060c082019050818103600083015261253b8189612378565b905061254a60208301886123e4565b61255760408301876123e4565b61256460608301866123e4565b6125716080830185612369565b61257e60a08301846123e4565b979650505050505050565b600060208201905061259e60008301846123e4565b92915050565b6000604051905081810181811067ffffffffffffffff821117156125c757600080fd5b8060405250919050565b600067ffffffffffffffff8211156125e857600080fd5b602082029050602081019050919050565b600067ffffffffffffffff82111561261057600080fd5b601f19601f8301169050602081019050919050565b600067ffffffffffffffff82111561263c57600080fd5b601f19601f8301169050602081019050919050565b6000602082019050919050565b600081519050919050565b600081519050919050565b600081519050919050565b6000602082019050919050565b6000612697826126aa565b9050919050565b60008115159050919050565b600073ffffffffffffffffffffffffffffffffffffffff82169050919050565b6000819050919050565b60006126df826126aa565b9050919050565b60006126f1826126aa565b9050919050565b60008115159050919050565b6000819050919050565b82818337600083830152505050565b60005b8381101561273b578082015181840152602081019050612720565b8381111561274a576000848401525b50505050565b6000601f19601f830116905091905056fea265627a7a723058202f152482a23b5b8b4bbe1d62cc9ec9f785394f2f78ffc99fe1d5041dabf68dac6c6578706572696d656e74616cf50037",
  "source": "// SPDX-License-Identifier: MIT\r\npragma experimental ABIEncoderV2;\r\npragma solidity >=0.4.22 <0.9.0;\r\n\r\ncontract CrowdFunding {\r\n    // \r\n    struct Funder {\r\n        address payable addr; // \r\n        uint256 amount; // \r\n    }\r\n\r\n    // \r\n    struct Use {\r\n        string info; // \r\n        uint256 goal; // \r\n        uint256 agreeAmount; // \r\n        uint256 disagree; // \r\n        bool over; // \r\n        mapping(uint256 => uint256) agree; //  0: 12\r\n    }\r\n    // \r\n    struct Prove {\r\n        string info; // \r\n        string relation; // \r\n        string picture; // \r\n    }\r\n\r\n    // \r\n    struct Funding {\r\n        address payable initiator; // \r\n        string title; // \r\n        string info; // \r\n        string coverImage; //\r\n        string[] details; // \r\n        uint256 goal; // \r\n        uint256 endTime; // \r\n        bool success; //  amount \r\n        uint256 amount; // \r\n        uint256 numFunders; // \r\n        uint256 numUses; // \r\n        uint256 numProves;\r\n        mapping(uint256 => Funder) funders; // \r\n        mapping(uint256 => Use) uses; // \r\n        mapping(uint256 => Prove) proves;\r\n    }\r\n\r\n    uint256 public numFundings; // \r\n    mapping(uint256 => Funding) public fundings; // \r\n\r\n    /**\r\n     * \r\n     * @param initiator \r\n     * @param title \r\n     * @param info \r\n     * @param goal \r\n     * @param endTime \r\n     */\r\n    function newFunding(\r\n        address payable initiator,\r\n        string memory title,\r\n        string memory info,\r\n        string memory coverImage,\r\n        string[] memory details,\r\n        uint256 goal,\r\n        uint256 endTime\r\n    ) public returns (uint256) {\r\n        require(endTime > block.timestamp);\r\n\r\n        numFundings = numFundings + 1;\r\n        Funding storage f = fundings[numFundings];\r\n        f.initiator = initiator;\r\n        f.title = title;\r\n        f.coverImage = coverImage;\r\n        f.details = details;\r\n        f.info = info;\r\n        f.goal = goal;\r\n        f.endTime = endTime;\r\n        f.success = false;\r\n        f.amount = 0;\r\n        f.numFunders = 0;\r\n        f.numUses = 0;\r\n        f.numProves = 0;\r\n\r\n        return numFundings;\r\n    }\r\n\r\n    function contribute(uint256 ID) public payable {\r\n        // 0\r\n        require(\r\n            msg.value > 0 &&\r\n                msg.value <= fundings[ID].goal - fundings[ID].amount\r\n        );\r\n        // \r\n        require(fundings[ID].endTime > block.timestamp);\r\n        // \r\n        require(fundings[ID].success == false);\r\n\r\n        Funding storage f = fundings[ID];\r\n        f.amount += msg.value;\r\n        f.numFunders = f.numFunders + 1;\r\n        f.funders[f.numFunders].addr = msg.sender;\r\n        f.funders[f.numFunders].amount = msg.value;\r\n        // \r\n        f.success = f.amount >= f.goal;\r\n    }\r\n\r\n    // \r\n    function returnMoney(uint256 ID) public {\r\n        require(ID <= numFundings && ID >= 1);\r\n        require(fundings[ID].success == false);\r\n\r\n        Funding storage f = fundings[ID];\r\n        for (uint256 i = 1; i <= f.numFunders; i++)\r\n            if (f.funders[i].addr == msg.sender) {\r\n                f.funders[i].addr.transfer(f.funders[i].amount);\r\n                f.funders[i].amount = 0;\r\n                f.amount -= f.funders[i].amount;\r\n            }\r\n    }\r\n\r\n    function newUse(\r\n        uint256 ID,\r\n        uint256 goal,\r\n        string memory info\r\n    ) public {\r\n        require(ID <= numFundings && ID >= 1);\r\n        require(fundings[ID].success == true);\r\n        require(goal <= fundings[ID].amount);\r\n        require(msg.sender == fundings[ID].initiator);\r\n\r\n        Funding storage f = fundings[ID];\r\n        f.numUses = f.numUses + 1;\r\n        f.uses[f.numUses].info = info;\r\n        f.uses[f.numUses].goal = goal;\r\n        f.uses[f.numUses].agreeAmount = 0;\r\n        f.uses[f.numUses].disagree = 0;\r\n        f.uses[f.numUses].over = false;\r\n        f.amount = f.amount - goal;\r\n    }\r\n\r\n    function newProve(\r\n        uint256 ID,\r\n        string memory info,\r\n        string memory relation,\r\n        string memory picture\r\n    ) public {\r\n        require(ID <= numFundings && ID >= 1);\r\n        require(msg.sender != fundings[ID].initiator);\r\n\r\n        Funding storage f = fundings[ID];\r\n        f.numProves = f.numProves + 1;\r\n        f.proves[f.numProves].info = info;\r\n        f.proves[f.numProves].relation = relation;\r\n        f.proves[f.numProves].picture = picture;\r\n    }\r\n\r\n    function agreeUse(\r\n        uint256 ID,\r\n        uint256 useID,\r\n        bool agree\r\n    ) public {\r\n        require(ID <= numFundings && ID >= 1);\r\n        require(useID <= fundings[ID].numUses && useID >= 1);\r\n        require(fundings[ID].uses[useID].over == false);\r\n\r\n        for (uint256 i = 1; i <= fundings[ID].numFunders; i++)\r\n            if (fundings[ID].funders[i].addr == msg.sender) {\r\n                if (fundings[ID].uses[useID].agree[i] == 1) {\r\n                    fundings[ID].uses[useID].agreeAmount -= fundings[ID]\r\n                        .funders[i]\r\n                        .amount;\r\n                } else if (fundings[ID].uses[useID].agree[i] == 2) {\r\n                    fundings[ID].uses[useID].disagree -= fundings[ID]\r\n                        .funders[i]\r\n                        .amount;\r\n                }\r\n                if (agree) {\r\n                    fundings[ID].uses[useID].agreeAmount += fundings[ID]\r\n                        .funders[i]\r\n                        .amount;\r\n                    fundings[ID].uses[useID].agree[i] = 1;\r\n                } else {\r\n                    fundings[ID].uses[useID].disagree += fundings[ID]\r\n                        .funders[i]\r\n                        .amount;\r\n                    fundings[ID].uses[useID].agree[i] = 2;\r\n                }\r\n            }\r\n        checkUse(ID, useID);\r\n    }\r\n\r\n    function checkUse(uint256 ID, uint256 useID) public {\r\n        require(ID <= numFundings && ID >= 1);\r\n        require(fundings[ID].uses[useID].over == false);\r\n\r\n        if (fundings[ID].uses[useID].agreeAmount >= fundings[ID].goal / 2) {\r\n            fundings[ID].uses[useID].over = true;\r\n            fundings[ID].initiator.transfer(fundings[ID].uses[useID].goal);\r\n        }\r\n        if (fundings[ID].uses[useID].disagree > fundings[ID].goal / 2) {\r\n            fundings[ID].amount =\r\n                fundings[ID].amount +\r\n                fundings[ID].uses[useID].goal;\r\n            fundings[ID].uses[useID].over = true;\r\n        }\r\n    }\r\n\r\n    function getUseLength(uint256 ID) public view returns (uint256) {\r\n        require(ID <= numFundings && ID >= 1);\r\n\r\n        return fundings[ID].numUses;\r\n    }\r\n\r\n    function getProveLength(uint256 ID) public view returns (uint256) {\r\n        require(ID <= numFundings && ID >= 1);\r\n\r\n        return fundings[ID].numProves;\r\n    }\r\n\r\n    function getDetails(uint256 ID) public view returns (string[] memory) {\r\n        require(ID <= numFundings && ID >= 1);\r\n\r\n        return fundings[ID].details;\r\n    }\r\n\r\n    function getUse(\r\n        uint256 ID,\r\n        uint256 useID,\r\n        address addr\r\n    )\r\n        public\r\n        view\r\n        returns (\r\n            string memory,\r\n            uint256,\r\n            uint256,\r\n            uint256,\r\n            bool,\r\n            uint256\r\n        )\r\n    {\r\n        require(ID <= numFundings && ID >= 1);\r\n        require(useID <= fundings[ID].numUses && useID >= 1);\r\n\r\n        Use storage u = fundings[ID].uses[useID];\r\n        uint256 agree = 0;\r\n        for (uint256 i = 1; i <= fundings[ID].numFunders; i++)\r\n            if (fundings[ID].funders[i].addr == addr) {\r\n                agree = fundings[ID].uses[useID].agree[i];\r\n                break;\r\n            }\r\n        return (u.info, u.goal, u.agreeAmount, u.disagree, u.over, agree);\r\n    }\r\n\r\n    function getProve(uint256 ID, uint256 useID)\r\n        public\r\n        view\r\n        returns (\r\n            string memory,\r\n            string memory,\r\n            string memory\r\n        )\r\n    {\r\n        require(ID <= numFundings && ID >= 1);\r\n\r\n        Prove storage u = fundings[ID].proves[useID];\r\n        return (u.info, u.relation, u.picture);\r\n    }\r\n\r\n    function getBalance() public view returns (uint256) {\r\n        return address(this).balance;\r\n    }\r\n\r\n    function getMyFundings(address addr, uint256 ID)\r\n        public\r\n        view\r\n        returns (uint256)\r\n    {\r\n        uint256 res = 0;\r\n        for (uint256 i = 1; i <= fundings[ID].numFunders; i++) {\r\n            if (fundings[ID].funders[i].addr == addr)\r\n                res += fundings[ID].funders[i].amount;\r\n        }\r\n        return res;\r\n    }\r\n}\r\n",
  "sourcePath": "C:\\Users\\guduhuanzhe\\Desktop\\dapp\\\\crowdfunding-dapp-master\\contracts\\CrowdFunding.sol",
  "compiler": {
    "name": "solc",
    "version": "0.5.1+commit.c8a2cb62.Emscripten.clang"
  },
  "schemaVersion": "3.4.5",
  "updatedAt": "2022-10-31T14:22:25.874Z",
  "networkType": "ethereum",
  "devdoc": {
    "methods": {
      "newFunding(address,string,string,string,string[],uint256,uint256)": {
        "params": {
          "endTime": "\r",
          "goal": "\r",
          "info": "\r",
          "initiator": "\r",
          "title": "\r"
        }
      }
    }
  },
  "userdoc": {
    "methods": {
      "newFunding(address,string,string,string,string[],uint256,uint256)": {
        "notice": "\r"
      }
    }
  }
}